{
  "_format": "hh-sol-artifact-1",
  "contractName": "Betting",
  "sourceName": "contracts/Betting.sol",
  "abi": [
    {
      "inputs": [
        {
          "internalType": "address",
          "name": "_paymentToken",
          "type": "address"
        }
      ],
      "stateMutability": "nonpayable",
      "type": "constructor"
    },
    {
      "inputs": [],
      "name": "owner",
      "outputs": [
        {
          "internalType": "address",
          "name": "",
          "type": "address"
        }
      ],
      "stateMutability": "view",
      "type": "function"
    },
    {
      "inputs": [],
      "name": "paymentToken",
      "outputs": [
        {
          "internalType": "contract IERC20",
          "name": "",
          "type": "address"
        }
      ],
      "stateMutability": "view",
      "type": "function"
    },
    {
      "inputs": [
        {
          "internalType": "uint256",
          "name": "_figureId",
          "type": "uint256"
        },
        {
          "internalType": "enum Betting.BetOption",
          "name": "_option",
          "type": "uint8"
        },
        {
          "internalType": "uint8",
          "name": "_odd",
          "type": "uint8"
        },
        {
          "internalType": "uint256",
          "name": "_betAmount",
          "type": "uint256"
        }
      ],
      "name": "placeBet",
      "outputs": [],
      "stateMutability": "nonpayable",
      "type": "function"
    },
    {
      "inputs": [
        {
          "internalType": "uint256",
          "name": "_figureId",
          "type": "uint256"
        },
        {
          "internalType": "enum Betting.BetOption",
          "name": "_result",
          "type": "uint8"
        }
      ],
      "name": "processGame",
      "outputs": [],
      "stateMutability": "nonpayable",
      "type": "function"
    },
    {
      "inputs": [
        {
          "internalType": "address",
          "name": "_newOwner",
          "type": "address"
        }
      ],
      "name": "updateOwner",
      "outputs": [],
      "stateMutability": "nonpayable",
      "type": "function"
    }
  ],
  "bytecode": "0x608060405234801561001057600080fd5b506040516106e33803806106e383398101604081905261002f9161005d565b600080546001600160a01b039092166001600160a01b0319928316179055600180549091163317905561008d565b60006020828403121561006f57600080fd5b81516001600160a01b038116811461008657600080fd5b9392505050565b6106478061009c6000396000f3fe608060405234801561001057600080fd5b50600436106100575760003560e01c80633013ce291461005c578063823a638e1461008b578063880cdc31146100a05780638da5cb5b146100b3578063e34cc8a8146100c6575b600080fd5b60005461006f906001600160a01b031681565b6040516001600160a01b03909116815260200160405180910390f35b61009e6100993660046104af565b6100d9565b005b61009e6100ae3660046104db565b610265565b60015461006f906001600160a01b031681565b61009e6100d436600461050b565b6102b1565b6001546001600160a01b0316331461010c5760405162461bcd60e51b815260040161010390610557565b60405180910390fd5b600082815260026020908152604080832080548251818502810185019093528083529192909190849084015b828210156101d45760008481526020908190206040805160808101909152600285810290920180546001600160a01b03811683529193909290840191600160a01b900460ff169081111561018e5761018e610598565b600281111561019f5761019f610598565b81528154600160a81b900461ffff16602080830191909152600192830154604090920191909152918352929092019101610138565b50505050905060005b815181101561025f5760008282815181106101fa576101fa6105ae565b6020026020010151905083600281111561021657610216610598565b8160200151600281111561022c5761022c610598565b03610256576102568160000151826040015161ffff16836060015161025191906105c4565b61041f565b506001016101dd565b50505050565b6001546001600160a01b0316331461028f5760405162461bcd60e51b815260040161010390610557565b600180546001600160a01b0319166001600160a01b0392909216919091179055565b6000546040516323b872dd60e01b8152336004820152306024820152604481018390526001600160a01b03909116906323b872dd906064016020604051808303816000875af1158015610308573d6000803e3d6000fd5b505050506040513d601f19601f8201168201806040525081019061032c91906105ef565b50600260008581526020019081526020016000206040518060800160405280336001600160a01b0316815260200185600281111561036c5761036c610598565b815260ff8516602080830191909152604090910184905282546001810184556000938452928190208251600294850290910180546001600160a01b039092166001600160a01b031983168117825592840151939490939284926001600160a81b0319161790600160a01b9084908111156103e8576103e8610598565b02179055506040820151815461ffff909116600160a81b0261ffff60a81b1990911617815560609091015160019091015550505050565b60005460405163a9059cbb60e01b81526001600160a01b038481166004830152602482018490529091169063a9059cbb906044016020604051808303816000875af1158015610472573d6000803e3d6000fd5b505050506040513d601f19601f8201168201806040525081019061049691906105ef565b505050565b8035600381106104aa57600080fd5b919050565b600080604083850312156104c257600080fd5b823591506104d26020840161049b565b90509250929050565b6000602082840312156104ed57600080fd5b81356001600160a01b038116811461050457600080fd5b9392505050565b6000806000806080858703121561052157600080fd5b843593506105316020860161049b565b9250604085013560ff8116811461054757600080fd5b9396929550929360600135925050565b60208082526021908201527f4f6e6c79206f776e65722063616e2063616c6c20746869732066756e6374696f6040820152603760f91b606082015260800190565b634e487b7160e01b600052602160045260246000fd5b634e487b7160e01b600052603260045260246000fd5b80820281158282048414176105e957634e487b7160e01b600052601160045260246000fd5b92915050565b60006020828403121561060157600080fd5b8151801515811461050457600080fdfea26469706673582212209d41c23e986c824567d120cce832549dbe5f57712030de391383fc96dec0446c64736f6c63430008180033",
  "linkReferences": {},
  "deployedLinkReferences": {}
}