{
  "_format": "hh-sol-artifact-1",
  "contractName": "Betting",
  "sourceName": "contracts/Betting.sol",
  "abi": [
    {
      "inputs": [
        {
          "internalType": "address",
          "name": "_paymentToken",
          "type": "address"
        }
      ],
      "stateMutability": "nonpayable",
      "type": "constructor"
    },
    {
      "inputs": [],
      "name": "owner",
      "outputs": [
        {
          "internalType": "address",
          "name": "",
          "type": "address"
        }
      ],
      "stateMutability": "view",
      "type": "function"
    },
    {
      "inputs": [],
      "name": "paymentToken",
      "outputs": [
        {
          "internalType": "contract IERC20",
          "name": "",
          "type": "address"
        }
      ],
      "stateMutability": "view",
      "type": "function"
    },
    {
      "inputs": [
        {
          "internalType": "uint256",
          "name": "_figureId",
          "type": "uint256"
        },
        {
          "internalType": "enum Betting.BetOption",
          "name": "_option",
          "type": "uint8"
        },
        {
          "internalType": "uint8",
          "name": "_odd",
          "type": "uint8"
        },
        {
          "internalType": "uint256",
          "name": "_betAmount",
          "type": "uint256"
        }
      ],
      "name": "placeBet",
      "outputs": [],
      "stateMutability": "nonpayable",
      "type": "function"
    },
    {
      "inputs": [
        {
          "internalType": "uint256",
          "name": "_figureId",
          "type": "uint256"
        },
        {
          "internalType": "enum Betting.BetOption",
          "name": "_result",
          "type": "uint8"
        }
      ],
      "name": "processGame",
      "outputs": [],
      "stateMutability": "nonpayable",
      "type": "function"
    },
    {
      "inputs": [
        {
          "internalType": "address",
          "name": "_newOwner",
          "type": "address"
        }
      ],
      "name": "updateOwner",
      "outputs": [],
      "stateMutability": "nonpayable",
      "type": "function"
    },
    {
      "inputs": [
        {
          "internalType": "address",
          "name": "_newPaymentToken",
          "type": "address"
        }
      ],
      "name": "updatePaymentToken",
      "outputs": [],
      "stateMutability": "nonpayable",
      "type": "function"
    }
  ],
  "bytecode": "0x608060405234801561001057600080fd5b5060405161074d38038061074d83398101604081905261002f9161005d565b600080546001600160a01b039092166001600160a01b0319928316179055600180549091163317905561008d565b60006020828403121561006f57600080fd5b81516001600160a01b038116811461008657600080fd5b9392505050565b6106b18061009c6000396000f3fe608060405234801561001057600080fd5b50600436106100625760003560e01c80633013ce29146100675780634ccf1b3414610096578063823a638e146100ab578063880cdc31146100be5780638da5cb5b146100d1578063e34cc8a8146100e4575b600080fd5b60005461007a906001600160a01b031681565b6040516001600160a01b03909116815260200160405180910390f35b6100a96100a4366004610505565b6100f7565b005b6100a96100b9366004610549565b61014c565b6100a96100cc366004610505565b6102cf565b60015461007a906001600160a01b031681565b6100a96100f2366004610575565b61031b565b6001546001600160a01b0316331461012a5760405162461bcd60e51b8152600401610121906105c1565b60405180910390fd5b600080546001600160a01b0319166001600160a01b0392909216919091179055565b6001546001600160a01b031633146101765760405162461bcd60e51b8152600401610121906105c1565b600082815260026020908152604080832080548251818502810185019093528083529192909190849084015b8282101561023e5760008481526020908190206040805160808101909152600285810290920180546001600160a01b03811683529193909290840191600160a01b900460ff16908111156101f8576101f8610602565b600281111561020957610209610602565b81528154600160a81b900461ffff166020808301919091526001928301546040909201919091529183529290920191016101a2565b50505050905060005b81518110156102c957600082828151811061026457610264610618565b6020026020010151905083600281111561028057610280610602565b8160200151600281111561029657610296610602565b036102c0576102c08160000151826040015161ffff1683606001516102bb919061062e565b610489565b50600101610247565b50505050565b6001546001600160a01b031633146102f95760405162461bcd60e51b8152600401610121906105c1565b600180546001600160a01b0319166001600160a01b0392909216919091179055565b6000546040516323b872dd60e01b8152336004820152306024820152604481018390526001600160a01b03909116906323b872dd906064016020604051808303816000875af1158015610372573d6000803e3d6000fd5b505050506040513d601f19601f820116820180604052508101906103969190610659565b50600260008581526020019081526020016000206040518060800160405280336001600160a01b031681526020018560028111156103d6576103d6610602565b815260ff8516602080830191909152604090910184905282546001810184556000938452928190208251600294850290910180546001600160a01b039092166001600160a01b031983168117825592840151939490939284926001600160a81b0319161790600160a01b90849081111561045257610452610602565b02179055506040820151815461ffff909116600160a81b0261ffff60a81b1990911617815560609091015160019091015550505050565b60005460405163a9059cbb60e01b81526001600160a01b038481166004830152602482018490529091169063a9059cbb906044016020604051808303816000875af11580156104dc573d6000803e3d6000fd5b505050506040513d601f19601f820116820180604052508101906105009190610659565b505050565b60006020828403121561051757600080fd5b81356001600160a01b038116811461052e57600080fd5b9392505050565b80356003811061054457600080fd5b919050565b6000806040838503121561055c57600080fd5b8235915061056c60208401610535565b90509250929050565b6000806000806080858703121561058b57600080fd5b8435935061059b60208601610535565b9250604085013560ff811681146105b157600080fd5b9396929550929360600135925050565b60208082526021908201527f4f6e6c79206f776e65722063616e2063616c6c20746869732066756e6374696f6040820152603760f91b606082015260800190565b634e487b7160e01b600052602160045260246000fd5b634e487b7160e01b600052603260045260246000fd5b808202811582820484141761065357634e487b7160e01b600052601160045260246000fd5b92915050565b60006020828403121561066b57600080fd5b8151801515811461052e57600080fdfea2646970667358221220e7f5566496c58e8f38835e5212ebdecc113853f10b0dc6fcf3f25ef42c85be8964736f6c63430008180033",
  "linkReferences": {},
  "deployedLinkReferences": {}
}